:100000000C9434000C9451000C9451000C943B035C
:100010000C9451000C9472000C9451000C945100FB
:100020000C9451000C9451000C9451000C9451000C
:100030000C9451000C9451000C9451000C945100FC
:100040000C9451000C9451000C9451000C945100EC
:100050000C9451000C9451000C9451000C945100DC
:100060000C9451000C94510011241FBECFEFD8E026
:10007000DEBFCDBF11E0A0E0B1E0EEE6FFE002C0E0
:1000800005900D92A232B107D9F711E0A2E2B1E0DA
:1000900001C01D92A332B107E1F70E94BF030C9487
:1000A000B5070C940000809168008460809368001C
:1000B0008CE080936D008BB18C608BB999B189B164
:1000C000887092FF06C0882311F083E005C081E0AC
:1000D00003C0882321F082E08093220108951092CA
:1000E000220108951F920F920FB60F9211242F93A1
:1000F0008F939F93EF93FF9399B1947089B1887018
:1001000020912201211115C0882341F0E0910001C6
:10011000F0E0EF5FFE4F808181504EC0992309F4DB
:100120005BC0E0910001F0E0EF5FFE4F80818F5FE8
:100130004FC0209122012130A9F4911108C0E09113
:100140000001F0E0EF5FFE4F8081815024C08823E2
:1001500009F442C0E0910001F0E0EF5FFE4F8081C2
:100160008F5F0DC0209122012230C9F4992351F0F4
:10017000E0910001F0E0EF5FFE4F808181508083CD
:1001800083E028C0811128C0E0910001F0E0EF5F1A
:10019000FE4F80818F5F8083109222011DC02091CD
:1001A00022012330C9F491110AC0E0910001F0E06E
:1001B000EF5FFE4F80818F5F808382E00BC08111F3
:1001C0000BC0E0910001F0E0EF5FFE4F80818150B5
:1001D000808381E080932201FF91EF919F918F9125
:1001E0002F910F900FBE0F901F9018959BB19F708D
:1001F0009BB99BB18295807F892B8BB9299A85E029
:100200008A95F1F7000029980895CF93C82F289870
:1002100085B1682B65B98C2F82958F700E94F6008E
:100220008C2F8F700E94F6008FE39FE10197F1F70A
:1002300000C00000CF91089560E00C940501CF93B9
:10024000DF93EC0103C061E00E94050189918111F7
:10025000FACFDF91CF91089560E081E00C94050121
:100260008FE59AEE0197F1F700C0000083E00E944D
:10027000F6008FE19EE40197F1F700C0000083E0F3
:100280000E94F6008FED91E00197F1F700C00000A9
:1002900083E00E94F60082E00E94F6008FE39FE177
:1002A0000197F1F700C0000060E088E20E940501BC
:1002B0008FE39FE10197F1F700C0000060E08FE05D
:1002C0000E9405018FE39FE10197F1F700C0000054
:1002D0000E942C012A9A089594B1982B94B987B161
:1002E000682B67B98AB1482B4AB90895FC0121816E
:1002F0008081203849F4282F205E90E00196880FF5
:10030000991F880F991F06C0282F205EF4E08F9F49
:10031000C001112465E070E00E94A904260F822F1D
:10032000089590E020910201332727FD309528178A
:10033000390714F4429A01C04298209101013327F1
:1003400027FD30958217930714F4419A0895419838
:1003500008959091010180910201891744F48091E0
:100360000001811104C080910201809301019091EC
:10037000020180910101981744F4809100018823C3
:1003800021F08091010180930201089588B180637A
:1003900088B940EF66E087E00E946C010E9453003C
:1003A0000E942F030E9430010E94FB020E94AD02B6
:1003B0000C945C0383E091E00E941F0189E80E9495
:1003C0001C0187E091E00E941F0180EC0E941C014B
:1003D0008BE091E00E941F0188EC0E941C018FE0DD
:1003E00091E00C941F01CF92DF92EF92FF920F9356
:1003F0001F934115510521F40115110509F4A0C001
:1004000094EA9093BC009091BC0097FFFCCF909130
:10041000B900987F983009F068C0982F9E7F90931C
:10042000BB0094E89093BC009091BC0097FFFCCF78
:100430009091B900987F983121F0903209F055C021
:1004400051C0FB01460F571F64E8E417F50791F010
:1004500091919093BB006093BC009091BC0097FF7A
:10046000FCCF9091B900987F983279F39033E9F5F9
:1004700090E338C0F901020F131F24E8E017F107D9
:1004800079F091919093BB002093BC009091BC00B7
:1004900097FFFCCF9091B900987F983279F3E6CF1F
:1004A000C114D10409F44AC020E194EA9093BC003D
:1004B0009091BC0097FFFCCF9091B900987F921368
:1004C00014C081608093BB0084E88093BC0080915D
:1004D000BC0087FFFCCF9091B900987F903439F031
:1004E000983419F484E98093BC00892F2FC0F70158
:1004F00084EC91E0C916D10491F08093BC009091F6
:10050000BC0097FFFCCF9091B900987F21E0C21A00
:10051000D108903551F79091BB009193EACF84E8D0
:100520008093BC008091BC0087FFFCCF9091B90004
:10053000987F9835D1F68091BB00808390E0D2CF30
:10054000C114D10411F028E0B0CF80E01F910F91C9
:10055000FF90EF90DF90CF900895CF92DF92EF92CF
:10056000FF920F931F93CF93DF931F92CDB7DEB708
:100570008EEE8983C12CD12CE12CF12C00E010E00F
:1005800020E030E041E050E0BE016F5F7F4F80E946
:100590000E94F3010F90DF91CF911F910F91FF9077
:1005A000EF90DF90CF900895CF92DF92EF92FF927D
:1005B0000F931F93CF93DF931F92CDB7DEB72AEA35
:1005C000298322E0C22ED12C7C0100E010E020E043
:1005D00030E041E050E0BE016F5F7F4F80E90E9454
:1005E000F3010F90DF91CF911F910F91FF90EF904A
:1005F000DF90CF900895CF92DF92EF92FF920F930A
:100600001F93CF93DF9300D0CDB7DEB71092B90020
:1006100089E48093B8008CEA898382E08A83C12CC4
:10062000D12CE12CF12C00E010E020E030E042E0A1
:1006300050E0BE016F5F7F4F80E90E94F3010F9091
:100640000F90DF91CF911F910F91FF90EF90DF906E
:10065000CF9008951092B9008093B8000895E8E60D
:10066000F0E080818160808380E380936B0085B1BE
:10067000806385B908951F920F920FB60F921124CF
:100680002F938F939F9323B183B191E085FB8827AC
:1006900080F9892724FD05C0811106C01092000150
:1006A00003C08111909300019F918F912F910F9022
:1006B0000FBE0F901F90189587E690E09093C500AD
:1006C0008093C400E1ECF0E080818861808386E063
:1006D0008093C20008958091C00087FF03C080917D
:1006E000C600089580E008959091C00095FFFCCF6A
:1006F0008093C60008950E946B0380E80895EF92EE
:10070000FF920F931F93CF93DF9300D000D01F92DF
:10071000CDB7DEB7282F87FD02C08BE201C08DE286
:100720008983822F64E60E949B04805D8A833AE07D
:10073000822F632F0E949B04292F632F0E949B040A
:10074000905D9B83205D2C838E010F5F1F4F7E0188
:1007500085E0E80EF11CF80181918F010E9474037D
:100760000E151F05C1F70F900F900F900F900F906F
:10077000DF91CF911F910F91FF90EF900895CF934C
:10078000DF93CDB7DEB727970FB6F894DEBF0FBE65
:10079000CDBF0E94C60178940E94DA0150E8952EE0
:1007A00060E8862E70E8B72EE0E86E2EF4E1CF2EDA
:1007B000F1E0DF2E8E010F5F1F4FA9E1EA2EA1E0CD
:1007C000FA2E0E94A901CE0106960E94D402CE0103
:1007D00006960E947601A82E0E947B03782E8091B7
:1007E00001018816E1F083E80E941C0120910101BB
:1007F000822F992787FD90959F932F93DF92CF9219
:100800001F930F930E94DD04C8010E941F01809076
:1008100001010F900F900F900F900F900F9080910B
:1008200002019816E1F08CE80E941C01209102015F
:10083000822F992787FD90959F932F93DF92CF92D8
:100840001F930F930E94DD04C8010E941F01909026
:1008500002010F900F900F900F900F900F906A145D
:10086000E1F083EC0E941C012A2D332727FD3095EF
:100870003F93AF92FF92EF921F930F930E94DD047C
:10088000C8010E941F018A2D0E947F030F900F90C4
:100890000F900F900F900F906A2C80E8B714E1F042
:1008A0007816E9F08CEC0E941C01272D332727FDD8
:1008B00030953F937F92FF92EF921F930F930E9488
:1008C000DD04C8010E941F010F900F900F900F9040
:1008D0000F900F90B72C28C0B81226C01CC080E81B
:1008E000B816C9F08CEC0E941C012B2D332727FD74
:1008F00030953F93BF92FF92EF921F930F930E9408
:10090000DD04C8010E941F010F900F900F900F90FF
:100910000F900F9009C08CEC0E941C018CE191E0BB
:100920000E941F0140E8B42E80ED0E941C018A2D18
:100930000E94910146CF87FB082E062687FD8195F0
:1009400067FD61950E94BD040EF4919507FC8195A9
:10095000089597FB072E16F4009407D077FD09D071
:100960000E94C90407FC05D03EF4909581959F4FE5
:100970000895709561957F4F0895991B79E004C0A3
:10098000991F961708F0961B881F7A95C9F78095CE
:100990000895AA1BBB1B51E107C0AA1FBB1FA617C6
:1009A000B70710F0A61BB70B881F991F5A95A9F718
:1009B00080959095BC01CD010895A0E1B0E0E3EEF3
:1009C000F4E00C948C070F89188D86E08C831A83D1
:1009D00009838FEF9FE79E838D83AE01455E5F4F56
:1009E000588B4F87698D7A8DCE0101960E94010543
:1009F000EF81F885E00FF11F10826096E4E00C941F
:100A0000A807ACE0B0E0E7E0F5E00C947E077C01DD
:100A10006B018A01FC0117821682838181FFC7C1A5
:100A200088248394912C8C0E9D1EF7019381F601EE
:100A300093FD859193FF81916F01882309F4B3C1E0
:100A4000853239F493FD859193FF81916F01853251
:100A500029F4B70190E00E94F406E7CF712C312C05
:100A600020E02032A8F48B3261F028F4803251F07B
:100A7000833271F40BC08D3239F0803349F4216038
:100A800028C02260246025C0286023C0206121C0C6
:100A900027FD27C0382F30533A3078F426FF06C0A0
:100AA000FAE07F9E300D1124732E13C08AE0389E29
:100AB000300D1124332E20620CC08E3221F426FD1D
:100AC00072C1206406C08C3611F4206802C08836DA
:100AD00041F4F60193FD859193FF81916F0181119E
:100AE000C0CF982F9554933018F09052933028F43B
:100AF0000C5F1F4FFFE3F9830DC0833631F083375E
:100B000071F0833509F05EC023C0F80180818983CC
:100B10000E5F1F4F66246394712C540115C0280189
:100B2000F2E04F0E511CF801A080B18026FF03C0F7
:100B3000672D70E002C06FEF7FEFC5012C870E9428
:100B4000E9063C0182012C856FE7262E222218C07F
:100B50002801F2E04F0E511CF801A080B18026FF61
:100B600003C0672D70E002C06FEF7FEFC5012C87D7
:100B70000E94DE063C012C8550E8252E222A8201A7
:100B800023FC1CC006C0B70180E290E00E94F4067E
:100B90003A94832D90E068167906A8F30FC0F5010A
:100BA00027FC859127FE81915F01B70190E00E94AB
:100BB000F40631103A94F1E06F1A7108611471046F
:100BC00071F7EEC0843611F0893641F5F80127FF40
:100BD00007C060817181828193810C5F1F4F08C0C3
:100BE00060817181882777FD8095982F0E5F1F4F58
:100BF0004FE6642E622297FF09C09095809570950C
:100C000061957F4F8F4F9F4FF0E86F2A2AE030E0C9
:100C1000A4010E942007A82EA81844C0853731F4EB
:100C20003FEEB32EB2222AE030E024C099EFB92E75
:100C3000B2228F36B9F020F4883509F0B4C00DC067
:100C4000803721F0883709F0AEC002C020E1B22A17
:100C5000B4FE0BC084E0B82A08C024FF09C0E6E057
:100C6000BE2A06C028E030E005C020E130E002C026
:100C700020E132E0F801B7FE07C060817181828116
:100C800093810C5F1F4F06C06081718180E090E00E
:100C90000E5F1F4FA4010E942007A82EA8188FE7FF
:100CA000682E6B2066FE0BC0362D3E7FA71450F4D5
:100CB00064FE0AC062FC08C0362D3E7E05C0BA2C18
:100CC000362D03C0BA2C01C0B72C34FF0DC0FE0175
:100CD000EA0DF11D8081803311F4397E09C032FFA5
:100CE00006C0B394B39404C0832F867809F0B394FC
:100CF00033FD14C030FF0FC07A2CB31460F4730CB2
:100D00007B18B32C08C0B70180E290E03C870E94BA
:100D1000F406B3943C85B314B0F304C0B31410F4D8
:100D20003B1801C0312C34FF12C0B70180E390E0C2
:100D30003C870E94F4063C8532FF1EC031FF03C091
:100D400088E590E002C088E790E0B7010CC0832FEF
:100D5000867891F031FD02C080E201C08BE237FD60
:100D60008DE2B70190E00E94F40606C0B70180E36F
:100D700090E00E94F4067A94A714C0F3AA94F401B8
:100D8000EA0DF11DB701808190E00E94F406A110E8
:100D9000F5CF06C0B70180E290E00E94F4063A94D5
:100DA0003110F8CF42CEF7012681378102C02FEFF4
:100DB0003FEFC9012C96E2E10C949A07FC010590E3
:100DC000615070400110D8F7809590958E0F9F1F4D
:100DD0000895FC016150704001900110D8F7809592
:100DE00090958E0F9F1F08950F931F93CF93DF93BE
:100DF0008C01EB018B8181FD03C00FEF1FEF1AC047
:100E000082FF0DC02E813F818C819D81281739077B
:100E100064F4E881F9810193F983E88306C0E885E9
:100E2000F985802F0995892B41F78E819F81019645
:100E30009F838E83C801DF91CF911F910F910895F9
:100E4000FA01AA27283051F1203181F1E8946F93FB
:100E50006E7F6E5F7F4F8F4F9F4FAF4FB1E03ED0A1
:100E6000B4E03CD0670F781F891F9A1FA11D680F3F
:100E7000791F8A1F911DA11D6A0F711D811D911D72
:100E8000A11D20D009F468943F912AE0269F1124E7
:100E90003019305D3193DEF6CF010895462F47704B
:100EA000405D4193B3E00FD0C9F7F6CF462F4F70A6
:100EB000405D4A3318F0495D31FD4052419302D004
:100EC000A9F7EACFB4E0A6959795879577956795AA
:100ED000BA95C9F700976105710508959B01AC01AA
:100EE0000A2E06945795479537952795BA95C9F7D1
:100EF000620F731F841F951FA01D08952F923F92AC
:100F00004F925F926F927F928F929F92AF92BF9219
:100F1000CF92DF92EF92FF920F931F93CF93DF93C5
:100F2000CDB7DEB7CA1BDB0B0FB6F894DEBF0FBE22
:100F3000CDBF09942A88398848885F846E847D846F
:100F40008C849B84AA84B984C884DF80EE80FD8071
:100F50000C811B81AA81B981CE0FD11D0FB6F894E7
:0E0F6000DEBF0FBECDBFED010895F894FFCFA8
:100F6E000146504C6F3A0048693A004C433A0052E1
:100F7E004D543A0025642020002564004E4F4E4506
:020F8E00000061
:00000001FF
