:100000000C9434000C9451000C9451000C94630334
:100010000C9451000C9472000C9451000C945100FB
:100020000C9451000C9451000C9451000C9451000C
:100030000C9451000C9451000C9451000C945100FC
:100040000C9451000C9451000C9451000C945100EC
:100050000C9451000C9451000C9451000C945100DC
:100060000C9451000C94510011241FBECFEFD8E026
:10007000DEBFCDBF11E0A0E0B1E0EAE2FEE002C0E9
:1000800005900D92AA31B107D9F711E0AAE1B1E0CC
:1000900001C01D92AB31B107E1F70E9484030C94BB
:1000A00013070C94000080916800846080936800BE
:1000B0008CE080936D008BB18C608BB999B189B164
:1000C000887092FF06C0882311F083E005C081E0AC
:1000D00003C0882321F082E080931A0108951092D2
:1000E0001A0108951F920F920FB60F9211242F93A9
:1000F0008F939F93EF93FF9399B1947089B1887018
:1001000020911A0121111BC0882359F0E0910001B0
:10011000F0E0EE0FFF1FEF5FFE4F808191810197AE
:1001200062C0992309F474C0E0910001F0E0EE0F81
:10013000FF1FEF5FFE4F80819181019664C0209187
:100140001A012130D9F491110BC0E0910001F0E0C7
:10015000EE0FFF1FEF5FFE4F8081918101972EC050
:10016000882309F455C0E0910001F0E0EE0FFF1F75
:10017000EF5FFE4F80819181019610C020911A019E
:10018000223009F5992371F0E0910001F0E0EE0FC3
:10019000FF1FEF5FFE4F80819181019791838083E4
:1001A00083E034C0811134C0E0910001F0E0EE0F33
:1001B000FF1FEF5FFE4F80819181019691838083C5
:1001C00010921A0125C020911A01233009F59111CE
:1001D0000EC0E0910001F0E0EE0FFF1FEF5FFE4F59
:1001E0008081918101969183808382E00FC081118B
:1001F0000FC0E0910001F0E0EE0FFF1FEF5FFE4F38
:100200008081918101979183808381E080931A019D
:10021000FF91EF919F918F912F910F900FBE0F90B3
:100220001F9018959BB19F709BB99BB18295807F61
:10023000892B8BB9299A85E08A95F1F700002998D6
:100240000895CF93C82F289885B1682B65B98C2F56
:1002500082958F700E9412018C2F8F700E94120164
:100260008FE39FE10197F1F700C00000CF9108955F
:1002700060E00C942101CF93DF93EC0103C061E0B7
:100280000E94210189918111FACFDF91CF910895C8
:1002900060E081E00C9421018FE59AEE0197F1F77F
:1002A00000C0000083E00E9412018FE19EE40197EC
:1002B000F1F700C0000083E00E9412018FED91E091
:1002C0000197F1F700C0000083E00E94120182E074
:1002D0000E9412018FE39FE10197F1F700C0000037
:1002E00060E088E20E9421018FE39FE10197F1F72E
:1002F00000C0000060E08FE00E9421018FE39FE1D9
:100300000197F1F700C000000E9448012A9A089561
:1003100094B1982B94B987B1682B67B98AB1482BEF
:100320004AB90895FC0131812081303821F430E050
:10033000C901019602C030E0C901880F991F880FDA
:10034000991F65E070E00E941304620F731F605EE6
:100350007F4FCB01089590E020910301309104017B
:100360002817390714F4429A01C0429820910101DC
:10037000309102018217930714F4419A089541982D
:100380000895209101013091020180910301909123
:1003900004018217930764F480910001811108C061
:1003A00080910301909104019093020180930101D7
:1003B000209103013091040180910101909102018B
:1003C0002817390764F480910001882341F0809157
:1003D000010190910201909304018093030108951B
:1003E00088B1806388B940EF66E087E00E948801A9
:1003F0000E9453000E9457030E944C010E94230355
:100400000C94D50285E091E00E943B0188E80E94AF
:10041000380189E091E00E943B0180EC0E943801A4
:100420008DE091E00E943B0188EC0E94380181E15F
:1004300091E00C943B01CF92DF92EF92FF920F93E9
:100440001F934115510521F40115110509F4A0C0B0
:1004500094EA9093BC009091BC0097FFFCCF9091E0
:10046000B900987F983009F068C0982F9E7F9093CC
:10047000BB0094E89093BC009091BC0097FFFCCF28
:100480009091B900987F983121F0903209F055C0D1
:1004900051C0FB01460F571F64E8E417F50791F0C0
:1004A00091919093BB006093BC009091BC0097FF2A
:1004B000FCCF9091B900987F983279F39033E9F5A9
:1004C00090E338C0F901020F131F24E8E017F10789
:1004D00079F091919093BB002093BC009091BC0067
:1004E00097FFFCCF9091B900987F983279F3E6CFCF
:1004F000C114D10409F44AC020E194EA9093BC00ED
:100500009091BC0097FFFCCF9091B900987F921317
:1005100014C081608093BB0084E88093BC0080910C
:10052000BC0087FFFCCF9091B900987F903439F0E0
:10053000983419F484E98093BC00892F2FC0F70107
:1005400084EC91E0C916D10491F08093BC009091A5
:10055000BC0097FFFCCF9091B900987F21E0C21AB0
:10056000D108903551F79091BB009193EACF84E880
:100570008093BC008091BC0087FFFCCF9091B900B4
:10058000987F9835D1F68091BB00808390E0D2CFE0
:10059000C114D10411F028E0B0CF80E01F910F9179
:1005A000FF90EF90DF90CF900895CF92DF92EF927F
:1005B000FF920F931F93CF93DF931F92CDB7DEB7B8
:1005C0008EEE8983C12CD12CE12CF12C00E010E0BF
:1005D00020E030E041E050E0BE016F5F7F4F80E9F6
:1005E0000E941B020F90DF91CF911F910F91FF90FE
:1005F000EF90DF90CF900895CF92DF92EF92FF922D
:100600000F931F93CF93DF931F92CDB7DEB72AEAE4
:10061000298322E0C22ED12C7C0100E010E020E0F2
:1006200030E041E050E0BE016F5F7F4F80E90E9403
:100630001B020F90DF91CF911F910F91FF90EF90D0
:10064000DF90CF900895CF92DF92EF92FF920F93B9
:100650001F93CF93DF9300D0CDB7DEB71092B900D0
:1006600089E48093B8008CEA898382E08A83C12C74
:10067000D12CE12CF12C00E010E020E030E042E051
:1006800050E0BE016F5F7F4F80E90E941B020F9018
:100690000F90DF91CF911F910F91FF90EF90DF901E
:1006A000CF9008951092B9008093B8000895E8E6BD
:1006B000F0E080818160808380E380936B0085B16E
:1006C000806385B908951F920F920FB60F9211247F
:1006D0002F938F939F9323B183B191E085FB88275C
:1006E00080F9892724FD05C0811106C01092000100
:1006F00003C08111909300019F918F912F910F90D2
:100700000FBE0F901F901895CF93DF93CDB7DEB734
:1007100027970FB6F894DEBF0FBECDBF0E94F00141
:1007200078940E940202A12C50E8B52E812C60E83A
:10073000962E612C70E8772EE5E1EE2EE1E0FE2E9C
:100740008E010F5F1F4F0E94C101CE0106960E94CD
:10075000FC02CE0106960E9492016C01809101017B
:100760009091020188169906E1F083E80E94380111
:1007700080910101909102019F938F93FF92EF92DC
:100780001F930F930E943B04C8010E943B0180907D
:100790000101909002010F900F900F900F900F9019
:1007A0000F908091030190910401A816B906E1F021
:1007B0008BE80E94380180910301909104019F937E
:1007C0008F93FF92EF921F930F930E943B04C801F7
:1007D0000E943B01A0900301B09004010F900F9084
:1007E0000F900F900F900F906C147D04A9F083EC84
:1007F0000E943801DF92CF92FF92EF921F930F93E6
:100800000E943B04C8010E943B010F900F900F9083
:100810000F900F900F90360180ED0E9438018C2DC3
:100820000E94AB0190CF97FB072E16F4009407D0DF
:1008300077FD09D00E94270407FC05D03EF490956F
:1008400081959F4F0895709561957F4F0895AA1BDC
:10085000BB1B51E107C0AA1FBB1FA617B70710F0AB
:10086000A61BB70B881F991F5A95A9F780959095DD
:10087000BC01CD010895A0E1B0E0E1E4F4E00C9406
:10088000EA060F89188D86E08C831A8309838FEF1F
:100890009FE79E838D83AE01455E5F4F588B4F87E8
:1008A000698D7A8DCE0101960E945F04EF81F885F3
:1008B000E00FF11F10826096E4E00C940607ACE0B4
:1008C000B0E0E5E6F4E00C94DC067C016B018A0103
:1008D000FC0117821682838181FFC7C1882483941B
:1008E000912C8C0E9D1EF7019381F60193FD85914D
:1008F00093FF81916F01882309F4B3C1853239F4E4
:1009000093FD859193FF81916F01853229F4B701A1
:1009100090E00E945206E7CF712C312C20E020326B
:10092000A8F48B3261F028F4803251F0833271F4F4
:100930000BC08D3239F0803349F4216028C0226029
:10094000246025C0286023C0206121C027FD27C066
:10095000382F30533A3078F426FF06C0FAE07F9EF5
:10096000300D1124732E13C08AE0389E300D1124EF
:10097000332E20620CC08E3221F426FD72C1206419
:1009800006C08C3611F4206802C0883641F4F601A6
:1009900093FD859193FF81916F018111C0CF982FB5
:1009A0009554933018F09052933028F40C5F1F4FF9
:1009B000FFE3F9830DC0833631F0833771F083355F
:1009C00009F05EC023C0F801808189830E5F1F4F4C
:1009D00066246394712C540115C02801F2E04F0E77
:1009E000511CF801A080B18026FF03C0672D70E084
:1009F00002C06FEF7FEFC5012C870E9447063C01C4
:100A000082012C856FE7262E222218C02801F2E0F1
:100A10004F0E511CF801A080B18026FF03C0672D46
:100A200070E002C06FEF7FEFC5012C870E943C068B
:100A30003C012C8550E8252E222A820123FC1CC073
:100A400006C0B70180E290E00E9452063A94832DDE
:100A500090E068167906A8F30FC0F50127FC859190
:100A600027FE81915F01B70190E00E94520631108C
:100A70003A94F1E06F1A71086114710471F7EEC0D5
:100A8000843611F0893641F5F80127FF07C06081EF
:100A90007181828193810C5F1F4F08C060817181D9
:100AA000882777FD8095982F0E5F1F4F4FE6642EA5
:100AB000622297FF09C090958095709561957F4F50
:100AC0008F4F9F4FF0E86F2A2AE030E0A4010E9488
:100AD0007E06A82EA81844C0853731F43FEEB32E09
:100AE000B2222AE030E024C099EFB92EB2228F362C
:100AF000B9F020F4883509F0B4C00DC0803721F07A
:100B0000883709F0AEC002C020E1B22AB4FE0BC0A3
:100B100084E0B82A08C024FF09C0E6E0BE2A06C067
:100B200028E030E005C020E130E002C020E132E002
:100B3000F801B7FE07C060817181828193810C5FEB
:100B40001F4F06C06081718180E090E00E5F1F4FF3
:100B5000A4010E947E06A82EA8188FE7682E6B209D
:100B600066FE0BC0362D3E7FA71450F464FE0AC00B
:100B700062FC08C0362D3E7E05C0BA2C362D03C05F
:100B8000BA2C01C0B72C34FF0DC0FE01EA0DF11DD7
:100B90008081803311F4397E09C032FF06C0B394DE
:100BA000B39404C0832F867809F0B39433FD14C046
:100BB00030FF0FC07A2CB31460F4730C7B18B32C85
:100BC00008C0B70180E290E03C870E945206B394CF
:100BD0003C85B314B0F304C0B31410F43B1801C047
:100BE000312C34FF12C0B70180E390E03C870E94B3
:100BF00052063C8532FF1EC031FF03C088E590E0FD
:100C000002C088E790E0B7010CC0832F867891F08E
:100C100031FD02C080E201C08BE237FD8DE2B701F9
:100C200090E00E94520606C0B70180E390E00E9467
:100C300052067A94A714C0F3AA94F401EA0DF11DA8
:100C4000B701808190E00E945206A110F5CF06C046
:100C5000B70180E290E00E9452063A943110F8CF3A
:100C600042CEF7012681378102C02FEF3FEFC90145
:100C70002C96E2E10C94F806FC010590615070405E
:100C80000110D8F7809590958E0F9F1F0895FC0155
:100C90006150704001900110D8F7809590958E0FAB
:100CA0009F1F08950F931F93CF93DF938C01EB0148
:100CB0008B8181FD03C00FEF1FEF1AC082FF0DC0B3
:100CC0002E813F818C819D812817390764F4E8814A
:100CD000F9810193F983E88306C0E885F985802FBF
:100CE0000995892B41F78E819F8101969F838E8381
:100CF000C801DF91CF911F910F910895FA01AA27A2
:100D0000283051F1203181F1E8946F936E7F6E5F4E
:100D10007F4F8F4F9F4FAF4FB1E03ED0B4E03CD0FC
:100D2000670F781F891F9A1FA11D680F791F8A1FDF
:100D3000911DA11D6A0F711D811D911DA11D20D046
:100D400009F468943F912AE0269F11243019305D00
:100D50003193DEF6CF010895462F4770405D4193F1
:100D6000B3E00FD0C9F7F6CF462F4F70405D4A333E
:100D700018F0495D31FD4052419302D0A9F7EACF06
:100D8000B4E0A6959795879577956795BA95C9F735
:100D900000976105710508959B01AC010A2E069428
:100DA0005795479537952795BA95C9F7620F731FE1
:100DB000841F951FA01D08952F923F924F925F921E
:100DC0006F927F928F929F92AF92BF92CF92DF925B
:100DD000EF92FF920F931F93CF93DF93CDB7DEB7C0
:100DE000CA1BDB0B0FB6F894DEBF0FBECDBF099454
:100DF0002A88398848885F846E847D848C849B84AB
:100E0000AA84B984C884DF80EE80FD800C811B81B8
:100E1000AA81B981CE0FD11D0FB6F894DEBF0FBEE7
:0A0E2000CDBFED010895F894FFCF57
:100E2A0001460050004C6F3A0048693A004C433A78
:0A0E3A0000524D3A0025642000002C
:00000001FF
