:100000000C9434000C9451000C9451000C943D035A
:100010000C9451000C9472000C9451000C945100FB
:100020000C9451000C9451000C9451000C9451000C
:100030000C9451000C9451000C9451000C945100FC
:100040000C9451000C9451000C9451000C945100EC
:100050000C9451000C9451000C9451000C945100DC
:100060000C9451000C94510011241FBECFEFD8E026
:10007000DEBFCDBF11E0A0E0B1E0EEE9FFE002C0DD
:1000800005900D92AC31B107D9F711E0ACE1B1E0C8
:1000900001C01D92AD31B107E1F70E9402040C943A
:1000A000CD070C9400008091680084608093680004
:1000B0008CE080936D008BB18C608BB999B189B164
:1000C000887092FF06C0882311F083E005C081E0AC
:1000D00003C0882321F082E080931C0108951092D0
:1000E0001C0108951F920F920FB60F9211242F93A7
:1000F0008F939F93EF93FF9399B1947089B1887018
:1001000020911C01211115C0882341F0E0910001CC
:10011000F0E0EF5FFE4F808181504EC0992309F4DB
:100120005BC0E0910001F0E0EF5FFE4F80818F5FE8
:100130004FC020911C012130A9F4911108C0E09119
:100140000001F0E0EF5FFE4F8081815024C08823E2
:1001500009F442C0E0910001F0E0EF5FFE4F8081C2
:100160008F5F0DC020911C012230C9F4992351F0FA
:10017000E0910001F0E0EF5FFE4F808181508083CD
:1001800083E028C0811128C0E0910001F0E0EF5F1A
:10019000FE4F80818F5F808310921C011DC02091D3
:1001A0001C012330C9F491110AC0E0910001F0E074
:1001B000EF5FFE4F80818F5F808382E00BC08111F3
:1001C0000BC0E0910001F0E0EF5FFE4F80818150B5
:1001D000808381E080931C01FF91EF919F918F912B
:1001E0002F910F900FBE0F901F9018959BB19F708D
:1001F0009BB99BB18295807F892B8BB9299A85E029
:100200008A95F1F7000029980895CF93C82F6111BE
:1002100002C0289801C0289A8C2F82958F700E9466
:10022000F6008C2F8F700E94F6008FE39FE10197FC
:10023000F1F700C00000CF91089560E00C94050133
:10024000CF93DF93EC0103C061E00E940501899127
:100250008111FACFDF91CF91089560E081E00C9495
:1002600005018FE59AEE0197F1F700C0000083E0E9
:100270000E94F6008FE19EE40197F1F700C00000B4
:1002800083E00E94F6008FED91E00197F1F700C046
:10029000000083E00E94F60082E00E94F6008FE3F7
:1002A0009FE10197F1F700C0000060E088E20E9442
:1002B00005018FE39FE10197F1F700C0000060E0C6
:1002C0008FE00E9405018FE39FE10197F1F700C0E5
:1002D00000000E942D012A9A089594B1982B94B998
:1002E00087B1682B67B98AB1482B4AB90895FC01D8
:1002F00021818081203849F4282F205E90E00196EA
:10030000880F991F880F991F06C0282F205EF4E0E0
:100310008F9FC001112465E070E00E94C104260F88
:10032000822F089590E020910201332727FD309518
:100330002817390714F4429A01C04298209101010C
:10034000332727FD30958217930714F4419A0895B7
:10035000419808959091010180910201891744F418
:1003600080910001811104C08091020180930101FC
:100370009091020180910101981744F4809100014D
:10038000882321F08091010180930201089588B1B2
:10039000806388B92B9840EF66E08FE00E946D0182
:1003A0000E9453000E9431030E9431010E94FD020D
:1003B0000E94AF020C945E0383E091E00E94200152
:1003C00089E80E941D0187E091E00E94200180ECF5
:1003D0000E941D018BE091E00E94200188EC0E94A8
:1003E0001D018FE091E00C942001CF92DF92EF92FB
:1003F000FF920F931F934115510521F4011511052B
:1004000009F4A0C094EA9093BC009091BC0097FFBF
:10041000FCCF9091B900987F983009F068C0982F70
:100420009E7F9093BB0094E89093BC009091BC0099
:1004300097FFFCCF9091B900987F983121F09032CE
:1004400009F055C051C0FB01460F571F64E8E4177F
:10045000F50791F091919093BB006093BC0090914F
:10046000BC0097FFFCCF9091B900987F983279F348
:100470009033E9F590E338C0F901020F131F24E827
:10048000E017F10779F091919093BB002093BC00A5
:100490009091BC0097FFFCCF9091B900987F983263
:1004A00079F3E6CFC114D10409F44AC020E194EAFB
:1004B0009093BC009091BC0097FFFCCF9091B90045
:1004C000987F921314C081608093BB0084E880936E
:1004D000BC008091BC0087FFFCCF9091B900987F51
:1004E000903439F0983419F484E98093BC00892F52
:1004F0002FC0F70184EC91E0C916D10491F08093EC
:10050000BC009091BC0097FFFCCF9091B900987F00
:1005100021E0C21AD108903551F79091BB00919318
:10052000EACF84E88093BC008091BC0087FFFCCFB9
:100530009091B900987F9835D1F68091BB00808367
:1005400090E0D2CFC114D10411F028E0B0CF80E008
:100550001F910F91FF90EF90DF90CF900895CF9271
:10056000DF92EF92FF920F931F93CF93DF931F922F
:10057000CDB7DEB78EEE8983C12CD12CE12CF12CC6
:1005800000E010E020E030E041E050E0BE016F5FAD
:100590007F4F80E90E94F5010F90DF91CF911F916D
:1005A0000F91FF90EF90DF90CF900895CF92DF9260
:1005B000EF92FF920F931F93CF93DF931F92CDB7CC
:1005C000DEB72AEA298322E0C22ED12C7C0100E08A
:1005D00010E020E030E041E050E0BE016F5F7F4F6F
:1005E00080E90E94F5010F90DF91CF911F910F914B
:1005F000FF90EF90DF90CF900895CF92DF92EF922F
:10060000FF920F931F93CF93DF9300D0CDB7DEB748
:100610001092B90089E48093B8008CEA898382E063
:100620008A83C12CD12CE12CF12C00E010E020E0D9
:1006300030E042E050E0BE016F5F7F4F80E90E94F2
:10064000F5010F900F90DF91CF911F910F91FF90C7
:10065000EF90DF90CF9008951092B9008093B8008A
:100660000895E8E6F0E080818160808380E38093F4
:100670006B0085B1806385B908951F920F920FB604
:100680000F9211242F938F939F9323B183B191E005
:1006900085FB882780F9892724FD05C0811106C0C4
:1006A0001092000103C08111909300019F918F91DE
:1006B0002F910F900FBE0F901F90189587E690E036
:1006C0009093C5008093C400E1ECF0E080818861E4
:1006D000808386E08093C20008958091C000881FC7
:1006E0008827881F08958091C00087FFFCCF8091E4
:1006F000C60008959091C00095FFFCCF8093C6007E
:100700000895DF92EF92FF920F931F93CF93DF93A1
:1007100000D000D0CDB7DEB77C018E010F5F1F4F38
:10072000D12C0E947303F80181938F01D11005C071
:100730008B3231F08D3221F019C080538A30B0F401
:10074000D394F4E0DF12EDCF8C81805D9A8124E6B2
:10075000929F800D11249B81EAE09E9F800D1124C1
:1007600099819D3209F48195F70180830F900F9054
:100770000F900F90DF91CF911F910F91FF90EF900D
:10078000DF900895EF92FF920F931F93CF93DF9323
:1007900000D000D01F92CDB7DEB7282F87FD02C052
:1007A0008BE201C08DE28983822F64E60E94B3044C
:1007B000805D8A833AE0822F632F0E94B304292F41
:1007C000632F0E94B304905D9B83205D2C838E0178
:1007D0000F5F1F4F7E0185E0E80EF11CF80181914B
:1007E0008F010E947A030E151F05C1F70F900F901D
:1007F0000F900F900F90DF91CF911F910F91FF906D
:10080000EF900895CF93DF93CDB7DEB728970FB65B
:10081000F894DEBF0FBECDBF0E94C70178940E943E
:10082000DC0140E8942E50E8852E60E8A62E74E1A5
:10083000E72E71E0F72E8E010F5F1F4FE9E1CE2EFC
:10084000E1E0DE2E0E94AA01CE0106960E94D602A9
:10085000CE0106960E947701B82E8091010188167C
:10086000E1F083E80E941D0180910101282F3327C8
:1008700027FD30953F938F93FF92EF921F930F9335
:100880000E94F504C8010E942001809001010F9090
:100890000F900F900F900F900F908091020198167B
:1008A000E1F08CE80E941D0180910201282F33277E
:1008B00027FD30953F938F93FF92EF921F930F93F5
:1008C0000E94F504C8010E942001909002010F903F
:1008D0000F900F900F900F900F90AB14E1F083ECFE
:1008E0000E941D012B2D332727FD30953F93BF928A
:1008F000DF92CF921F930F930E94F504C8010E94CC
:1009000020018B2D0E94C2030F900F900F900F902B
:100910000F900F90AB2C0E946D038823E9F0CE015D
:1009200008960E9481038CEC0E941D018885282F67
:10093000332727FD30953F938F93DF92CF921F93FC
:100940000F930E94F504C8010E9420010F900F90A0
:100950000F900F900F900F9080ED0E941D018B2D36
:100960000E9492016FCF87FB082E062687FD819596
:1009700067FD61950E94D5040EF4919507FC819561
:10098000089597FB072E16F4009407D077FD09D041
:100990000E94E10407FC05D03EF4909581959F4F9D
:1009A0000895709561957F4F0895991B79E004C073
:1009B000991F961708F0961B881F7A95C9F780959E
:1009C0000895AA1BBB1B51E107C0AA1FBB1FA61796
:1009D000B70710F0A61BB70B881F991F5A95A9F7E8
:1009E00080959095BC01CD010895A0E1B0E0EBEFBA
:1009F000F4E00C94A4070F89188D86E08C831A8389
:100A000009838FEF9FE79E838D83AE01455E5F4F25
:100A1000588B4F87698D7A8DCE0101960E941905FA
:100A2000EF81F885E00FF11F10826096E4E00C94EE
:100A3000C007ACE0B0E0EFE1F5E00C9496077C0174
:100A40006B018A01FC0117821682838181FFC7C175
:100A500088248394912C8C0E9D1EF7019381F601BE
:100A600093FD859193FF81916F01882309F4B3C1B0
:100A7000853239F493FD859193FF81916F01853221
:100A800029F4B70190E00E940C07E7CF712C312CBC
:100A900020E02032A8F48B3261F028F4803251F04B
:100AA000833271F40BC08D3239F0803349F4216008
:100AB00028C02260246025C0286023C0206121C096
:100AC00027FD27C0382F30533A3078F426FF06C070
:100AD000FAE07F9E300D1124732E13C08AE0389EF9
:100AE000300D1124332E20620CC08E3221F426FDED
:100AF00072C1206406C08C3611F4206802C08836AA
:100B000041F4F60193FD859193FF81916F0181116D
:100B1000C0CF982F9554933018F09052933028F40A
:100B20000C5F1F4FFFE3F9830DC0833631F083372D
:100B300071F0833509F05EC023C0F801808189839C
:100B40000E5F1F4F66246394712C540115C0280159
:100B5000F2E04F0E511CF801A080B18026FF03C0C7
:100B6000672D70E002C06FEF7FEFC5012C870E94F8
:100B700001073C0182012C856FE7262E222218C036
:100B80002801F2E04F0E511CF801A080B18026FF31
:100B900003C0672D70E002C06FEF7FEFC5012C87A7
:100BA0000E94F6063C012C8550E8252E222A82015F
:100BB00023FC1CC006C0B70180E290E00E940C0735
:100BC0003A94832D90E068167906A8F30FC0F501DA
:100BD00027FC859127FE81915F01B70190E00E947B
:100BE0000C0731103A94F1E06F1A71086114710426
:100BF00071F7EEC0843611F0893641F5F80127FF10
:100C000007C060817181828193810C5F1F4F08C092
:100C100060817181882777FD8095982F0E5F1F4F27
:100C20004FE6642E622297FF09C0909580957095DB
:100C300061957F4F8F4F9F4FF0E86F2A2AE030E099
:100C4000A4010E943807A82EA81844C0853731F4A3
:100C50003FEEB32EB2222AE030E024C099EFB92E45
:100C6000B2228F36B9F020F4883509F0B4C00DC037
:100C7000803721F0883709F0AEC002C020E1B22AE7
:100C8000B4FE0BC084E0B82A08C024FF09C0E6E027
:100C9000BE2A06C028E030E005C020E130E002C0F6
:100CA00020E132E0F801B7FE07C0608171818281E6
:100CB00093810C5F1F4F06C06081718180E090E0DE
:100CC0000E5F1F4FA4010E943807A82EA8188FE7B7
:100CD000682E6B2066FE0BC0362D3E7FA71450F4A5
:100CE00064FE0AC062FC08C0362D3E7E05C0BA2CE8
:100CF000362D03C0BA2C01C0B72C34FF0DC0FE0145
:100D0000EA0DF11D8081803311F4397E09C032FF74
:100D100006C0B394B39404C0832F867809F0B394CB
:100D200033FD14C030FF0FC07A2CB31460F4730C81
:100D30007B18B32C08C0B70180E290E03C870E948A
:100D40000C07B3943C85B314B0F304C0B31410F48F
:100D50003B1801C0312C34FF12C0B70180E390E092
:100D60003C870E940C073C8532FF1EC031FF03C048
:100D700088E590E002C088E790E0B7010CC0832FBF
:100D8000867891F031FD02C080E201C08BE237FD30
:100D90008DE2B70190E00E940C0706C0B70180E326
:100DA00090E00E940C077A94A714C0F3AA94F4016F
:100DB000EA0DF11DB701808190E00E940C07A1109F
:100DC000F5CF06C0B70180E290E00E940C073A948C
:100DD0003110F8CF42CEF7012681378102C02FEFC4
:100DE0003FEFC9012C96E2E10C94B207FC0105909B
:100DF000615070400110D8F7809590958E0F9F1F1D
:100E00000895FC016150704001900110D8F7809561
:100E100090958E0F9F1F08950F931F93CF93DF938D
:100E20008C01EB018B8181FD03C00FEF1FEF1AC016
:100E300082FF0DC02E813F818C819D81281739074B
:100E400064F4E881F9810193F983E88306C0E885B9
:100E5000F985802F0995892B41F78E819F81019615
:100E60009F838E83C801DF91CF911F910F910895C9
:100E7000FA01AA27283051F1203181F1E8946F93CB
:100E80006E7F6E5F7F4F8F4F9F4FAF4FB1E03ED071
:100E9000B4E03CD0670F781F891F9A1FA11D680F0F
:100EA000791F8A1F911DA11D6A0F711D811D911D42
:100EB000A11D20D009F468943F912AE0269F1124B7
:100EC0003019305D3193DEF6CF010895462F47701B
:100ED000405D4193B3E00FD0C9F7F6CF462F4F7076
:100EE000405D4A3318F0495D31FD4052419302D0D4
:100EF000A9F7EACFB4E0A69597958795779567957A
:100F0000BA95C9F700976105710508959B01AC0179
:100F10000A2E06945795479537952795BA95C9F7A0
:100F2000620F731F841F951FA01D08952F923F927B
:100F30004F925F926F927F928F929F92AF92BF92E9
:100F4000CF92DF92EF92FF920F931F93CF93DF9395
:100F5000CDB7DEB7CA1BDB0B0FB6F894DEBF0FBEF2
:100F6000CDBF09942A88398848885F846E847D843F
:100F70008C849B84AA84B984C884DF80EE80FD8041
:100F80000C811B81AA81B981CE0FD11D0FB6F894B7
:0E0F9000DEBF0FBECDBFED010895F894FFCF78
:100F9E000146504C6F3A0048693A004C433A0052B1
:0C0FAE004D543A0025642020002564000A
:00000001FF
